{
	"contracts/SistemaDeRecompensas.sol": {
		"SistemaDeRecompensas": {
			"abi": [
				{
					"inputs": [
						{
							"internalType": "uint256",
							"name": "_UmbralParaRecompensa",
							"type": "uint256"
						}
					],
					"stateMutability": "nonpayable",
					"type": "constructor"
				},
				{
					"inputs": [
						{
							"internalType": "uint256",
							"name": "_sumarPuntos",
							"type": "uint256"
						}
					],
					"name": "AcumularPuntos",
					"outputs": [],
					"stateMutability": "nonpayable",
					"type": "function"
				},
				{
					"inputs": [],
					"name": "ConsultarEstadoDeRecompensa",
					"outputs": [
						{
							"internalType": "uint256",
							"name": "",
							"type": "uint256"
						},
						{
							"internalType": "uint256",
							"name": "",
							"type": "uint256"
						},
						{
							"internalType": "bool",
							"name": "",
							"type": "bool"
						}
					],
					"stateMutability": "view",
					"type": "function"
				}
			],
			"devdoc": {
				"kind": "dev",
				"methods": {},
				"version": 1
			},
			"evm": {
				"assembly": "    /* \"contracts/SistemaDeRecompensas.sol\":68:1217  contract SistemaDeRecompensas{... */\n  mstore(0x40, 0x80)\n    /* \"contracts/SistemaDeRecompensas.sol\":185:186  0 */\n  0x00\n    /* \"contracts/SistemaDeRecompensas.sol\":163:186  uint256 puntosUsuario=0 */\n  0x01\n  sstore\n    /* \"contracts/SistemaDeRecompensas.sol\":332:437  constructor(uint256 _UmbralParaRecompensa){... */\n  callvalue\n  dup1\n  iszero\n  tag_1\n  jumpi\n  0x00\n  dup1\n  revert\ntag_1:\n  pop\n  mload(0x40)\n  sub(codesize, bytecodeSize)\n  dup1\n  bytecodeSize\n  dup4\n  codecopy\n  dup2\n  dup2\n  add\n  0x40\n  mstore\n  dup2\n  add\n  swap1\n  tag_2\n  swap2\n  swap1\n  tag_3\n  jump\t// in\ntag_2:\n    /* \"contracts/SistemaDeRecompensas.sol\":408:429  _UmbralParaRecompensa */\n  dup1\n    /* \"contracts/SistemaDeRecompensas.sol\":385:405  UmbralParaRecompensa */\n  0x00\n    /* \"contracts/SistemaDeRecompensas.sol\":385:429  UmbralParaRecompensa = _UmbralParaRecompensa */\n  dup2\n  swap1\n  sstore\n  pop\n    /* \"contracts/SistemaDeRecompensas.sol\":332:437  constructor(uint256 _UmbralParaRecompensa){... */\n  pop\n    /* \"contracts/SistemaDeRecompensas.sol\":68:1217  contract SistemaDeRecompensas{... */\n  jump(tag_6)\n    /* \"#utility.yul\":88:205   */\ntag_8:\n    /* \"#utility.yul\":197:198   */\n  0x00\n    /* \"#utility.yul\":194:195   */\n  dup1\n    /* \"#utility.yul\":187:199   */\n  revert\n    /* \"#utility.yul\":334:411   */\ntag_10:\n    /* \"#utility.yul\":371:378   */\n  0x00\n    /* \"#utility.yul\":400:405   */\n  dup2\n    /* \"#utility.yul\":389:405   */\n  swap1\n  pop\n    /* \"#utility.yul\":334:411   */\n  swap2\n  swap1\n  pop\n  jump\t// out\n    /* \"#utility.yul\":417:539   */\ntag_11:\n    /* \"#utility.yul\":490:514   */\n  tag_19\n    /* \"#utility.yul\":508:513   */\n  dup2\n    /* \"#utility.yul\":490:514   */\n  tag_10\n  jump\t// in\ntag_19:\n    /* \"#utility.yul\":483:488   */\n  dup2\n    /* \"#utility.yul\":480:515   */\n  eq\n    /* \"#utility.yul\":470:533   */\n  tag_20\n  jumpi\n    /* \"#utility.yul\":529:530   */\n  0x00\n    /* \"#utility.yul\":526:527   */\n  dup1\n    /* \"#utility.yul\":519:531   */\n  revert\n    /* \"#utility.yul\":470:533   */\ntag_20:\n    /* \"#utility.yul\":417:539   */\n  pop\n  jump\t// out\n    /* \"#utility.yul\":545:688   */\ntag_12:\n    /* \"#utility.yul\":602:607   */\n  0x00\n    /* \"#utility.yul\":633:639   */\n  dup2\n    /* \"#utility.yul\":627:640   */\n  mload\n    /* \"#utility.yul\":618:640   */\n  swap1\n  pop\n    /* \"#utility.yul\":649:682   */\n  tag_22\n    /* \"#utility.yul\":676:681   */\n  dup2\n    /* \"#utility.yul\":649:682   */\n  tag_11\n  jump\t// in\ntag_22:\n    /* \"#utility.yul\":545:688   */\n  swap3\n  swap2\n  pop\n  pop\n  jump\t// out\n    /* \"#utility.yul\":694:1045   */\ntag_3:\n    /* \"#utility.yul\":764:770   */\n  0x00\n    /* \"#utility.yul\":813:815   */\n  0x20\n    /* \"#utility.yul\":801:810   */\n  dup3\n    /* \"#utility.yul\":792:799   */\n  dup5\n    /* \"#utility.yul\":788:811   */\n  sub\n    /* \"#utility.yul\":784:816   */\n  slt\n    /* \"#utility.yul\":781:900   */\n  iszero\n  tag_24\n  jumpi\n    /* \"#utility.yul\":819:898   */\n  tag_25\n  tag_8\n  jump\t// in\ntag_25:\n    /* \"#utility.yul\":781:900   */\ntag_24:\n    /* \"#utility.yul\":939:940   */\n  0x00\n    /* \"#utility.yul\":964:1028   */\n  tag_26\n    /* \"#utility.yul\":1020:1027   */\n  dup5\n    /* \"#utility.yul\":1011:1017   */\n  dup3\n    /* \"#utility.yul\":1000:1009   */\n  dup6\n    /* \"#utility.yul\":996:1018   */\n  add\n    /* \"#utility.yul\":964:1028   */\n  tag_12\n  jump\t// in\ntag_26:\n    /* \"#utility.yul\":954:1028   */\n  swap2\n  pop\n    /* \"#utility.yul\":910:1038   */\n  pop\n    /* \"#utility.yul\":694:1045   */\n  swap3\n  swap2\n  pop\n  pop\n  jump\t// out\n    /* \"contracts/SistemaDeRecompensas.sol\":68:1217  contract SistemaDeRecompensas{... */\ntag_6:\n  dataSize(sub_0)\n  dup1\n  dataOffset(sub_0)\n  0x00\n  codecopy\n  0x00\n  return\nstop\n\nsub_0: assembly {\n        /* \"contracts/SistemaDeRecompensas.sol\":68:1217  contract SistemaDeRecompensas{... */\n      mstore(0x40, 0x80)\n      callvalue\n      dup1\n      iszero\n      tag_1\n      jumpi\n      0x00\n      dup1\n      revert\n    tag_1:\n      pop\n      jumpi(tag_2, lt(calldatasize, 0x04))\n      shr(0xe0, calldataload(0x00))\n      dup1\n      0xab02353c\n      eq\n      tag_3\n      jumpi\n      dup1\n      0xeab0a737\n      eq\n      tag_4\n      jumpi\n    tag_2:\n      0x00\n      dup1\n      revert\n        /* \"contracts/SistemaDeRecompensas.sol\":449:670  function AcumularPuntos(uint256 _sumarPuntos ) public  {... */\n    tag_3:\n      tag_5\n      0x04\n      dup1\n      calldatasize\n      sub\n      dup2\n      add\n      swap1\n      tag_6\n      swap2\n      swap1\n      tag_7\n      jump\t// in\n    tag_6:\n      tag_8\n      jump\t// in\n    tag_5:\n      stop\n        /* \"contracts/SistemaDeRecompensas.sol\":681:1214  function ConsultarEstadoDeRecompensa() public view returns(uint256, uint256, bool){... */\n    tag_4:\n      tag_9\n      tag_10\n      jump\t// in\n    tag_9:\n      mload(0x40)\n      tag_11\n      swap4\n      swap3\n      swap2\n      swap1\n      tag_12\n      jump\t// in\n    tag_11:\n      mload(0x40)\n      dup1\n      swap2\n      sub\n      swap1\n      return\n        /* \"contracts/SistemaDeRecompensas.sol\":449:670  function AcumularPuntos(uint256 _sumarPuntos ) public  {... */\n    tag_8:\n        /* \"contracts/SistemaDeRecompensas.sol\":536:537  0 */\n      0x00\n        /* \"contracts/SistemaDeRecompensas.sol\":523:535  _sumarPuntos */\n      dup2\n        /* \"contracts/SistemaDeRecompensas.sol\":523:537  _sumarPuntos>0 */\n      gt\n        /* \"contracts/SistemaDeRecompensas.sol\":515:578  require(_sumarPuntos>0,\"Los puntos deben ser superior a cero.\") */\n      tag_14\n      jumpi\n      mload(0x40)\n      0x08c379a000000000000000000000000000000000000000000000000000000000\n      dup2\n      mstore\n      0x04\n      add\n      tag_15\n      swap1\n      tag_16\n      jump\t// in\n    tag_15:\n      mload(0x40)\n      dup1\n      swap2\n      sub\n      swap1\n      revert\n    tag_14:\n        /* \"contracts/SistemaDeRecompensas.sol\":648:660  _sumarPuntos */\n      dup1\n        /* \"contracts/SistemaDeRecompensas.sol\":631:644  puntosUsuario */\n      0x01\n      0x00\n        /* \"contracts/SistemaDeRecompensas.sol\":631:660  puntosUsuario += _sumarPuntos */\n      dup3\n      dup3\n      sload\n      tag_17\n      swap2\n      swap1\n      tag_18\n      jump\t// in\n    tag_17:\n      swap3\n      pop\n      pop\n      dup2\n      swap1\n      sstore\n      pop\n        /* \"contracts/SistemaDeRecompensas.sol\":449:670  function AcumularPuntos(uint256 _sumarPuntos ) public  {... */\n      pop\n      jump\t// out\n        /* \"contracts/SistemaDeRecompensas.sol\":681:1214  function ConsultarEstadoDeRecompensa() public view returns(uint256, uint256, bool){... */\n    tag_10:\n        /* \"contracts/SistemaDeRecompensas.sol\":740:747  uint256 */\n      0x00\n        /* \"contracts/SistemaDeRecompensas.sol\":749:756  uint256 */\n      dup1\n        /* \"contracts/SistemaDeRecompensas.sol\":758:762  bool */\n      0x00\n        /* \"contracts/SistemaDeRecompensas.sol\":1017:1033  bool alcanzoMeta */\n      dup1\n        /* \"contracts/SistemaDeRecompensas.sol\":1051:1071  UmbralParaRecompensa */\n      sload(0x00)\n        /* \"contracts/SistemaDeRecompensas.sol\":1036:1049  puntosUsuario */\n      sload(0x01)\n        /* \"contracts/SistemaDeRecompensas.sol\":1036:1071  puntosUsuario>=UmbralParaRecompensa */\n      lt\n      iszero\n        /* \"contracts/SistemaDeRecompensas.sol\":1017:1071  bool alcanzoMeta = puntosUsuario>=UmbralParaRecompensa */\n      swap1\n      pop\n        /* \"contracts/SistemaDeRecompensas.sol\":1133:1153  UmbralParaRecompensa */\n      sload(0x00)\n        /* \"contracts/SistemaDeRecompensas.sol\":1155:1168  puntosUsuario */\n      sload(0x01)\n        /* \"contracts/SistemaDeRecompensas.sol\":1170:1181  alcanzoMeta */\n      dup3\n        /* \"contracts/SistemaDeRecompensas.sol\":1125:1182  return (UmbralParaRecompensa, puntosUsuario, alcanzoMeta) */\n      swap4\n      pop\n      swap4\n      pop\n      swap4\n      pop\n      pop\n        /* \"contracts/SistemaDeRecompensas.sol\":681:1214  function ConsultarEstadoDeRecompensa() public view returns(uint256, uint256, bool){... */\n      swap1\n      swap2\n      swap3\n      jump\t// out\n        /* \"#utility.yul\":88:205   */\n    tag_21:\n        /* \"#utility.yul\":197:198   */\n      0x00\n        /* \"#utility.yul\":194:195   */\n      dup1\n        /* \"#utility.yul\":187:199   */\n      revert\n        /* \"#utility.yul\":334:411   */\n    tag_23:\n        /* \"#utility.yul\":371:378   */\n      0x00\n        /* \"#utility.yul\":400:405   */\n      dup2\n        /* \"#utility.yul\":389:405   */\n      swap1\n      pop\n        /* \"#utility.yul\":334:411   */\n      swap2\n      swap1\n      pop\n      jump\t// out\n        /* \"#utility.yul\":417:539   */\n    tag_24:\n        /* \"#utility.yul\":490:514   */\n      tag_39\n        /* \"#utility.yul\":508:513   */\n      dup2\n        /* \"#utility.yul\":490:514   */\n      tag_23\n      jump\t// in\n    tag_39:\n        /* \"#utility.yul\":483:488   */\n      dup2\n        /* \"#utility.yul\":480:515   */\n      eq\n        /* \"#utility.yul\":470:533   */\n      tag_40\n      jumpi\n        /* \"#utility.yul\":529:530   */\n      0x00\n        /* \"#utility.yul\":526:527   */\n      dup1\n        /* \"#utility.yul\":519:531   */\n      revert\n        /* \"#utility.yul\":470:533   */\n    tag_40:\n        /* \"#utility.yul\":417:539   */\n      pop\n      jump\t// out\n        /* \"#utility.yul\":545:684   */\n    tag_25:\n        /* \"#utility.yul\":591:596   */\n      0x00\n        /* \"#utility.yul\":629:635   */\n      dup2\n        /* \"#utility.yul\":616:636   */\n      calldataload\n        /* \"#utility.yul\":607:636   */\n      swap1\n      pop\n        /* \"#utility.yul\":645:678   */\n      tag_42\n        /* \"#utility.yul\":672:677   */\n      dup2\n        /* \"#utility.yul\":645:678   */\n      tag_24\n      jump\t// in\n    tag_42:\n        /* \"#utility.yul\":545:684   */\n      swap3\n      swap2\n      pop\n      pop\n      jump\t// out\n        /* \"#utility.yul\":690:1019   */\n    tag_7:\n        /* \"#utility.yul\":749:755   */\n      0x00\n        /* \"#utility.yul\":798:800   */\n      0x20\n        /* \"#utility.yul\":786:795   */\n      dup3\n        /* \"#utility.yul\":777:784   */\n      dup5\n        /* \"#utility.yul\":773:796   */\n      sub\n        /* \"#utility.yul\":769:801   */\n      slt\n        /* \"#utility.yul\":766:885   */\n      iszero\n      tag_44\n      jumpi\n        /* \"#utility.yul\":804:883   */\n      tag_45\n      tag_21\n      jump\t// in\n    tag_45:\n        /* \"#utility.yul\":766:885   */\n    tag_44:\n        /* \"#utility.yul\":924:925   */\n      0x00\n        /* \"#utility.yul\":949:1002   */\n      tag_46\n        /* \"#utility.yul\":994:1001   */\n      dup5\n        /* \"#utility.yul\":985:991   */\n      dup3\n        /* \"#utility.yul\":974:983   */\n      dup6\n        /* \"#utility.yul\":970:992   */\n      add\n        /* \"#utility.yul\":949:1002   */\n      tag_25\n      jump\t// in\n    tag_46:\n        /* \"#utility.yul\":939:1002   */\n      swap2\n      pop\n        /* \"#utility.yul\":895:1012   */\n      pop\n        /* \"#utility.yul\":690:1019   */\n      swap3\n      swap2\n      pop\n      pop\n      jump\t// out\n        /* \"#utility.yul\":1025:1143   */\n    tag_26:\n        /* \"#utility.yul\":1112:1136   */\n      tag_48\n        /* \"#utility.yul\":1130:1135   */\n      dup2\n        /* \"#utility.yul\":1112:1136   */\n      tag_23\n      jump\t// in\n    tag_48:\n        /* \"#utility.yul\":1107:1110   */\n      dup3\n        /* \"#utility.yul\":1100:1137   */\n      mstore\n        /* \"#utility.yul\":1025:1143   */\n      pop\n      pop\n      jump\t// out\n        /* \"#utility.yul\":1149:1239   */\n    tag_27:\n        /* \"#utility.yul\":1183:1190   */\n      0x00\n        /* \"#utility.yul\":1226:1231   */\n      dup2\n        /* \"#utility.yul\":1219:1232   */\n      iszero\n        /* \"#utility.yul\":1212:1233   */\n      iszero\n        /* \"#utility.yul\":1201:1233   */\n      swap1\n      pop\n        /* \"#utility.yul\":1149:1239   */\n      swap2\n      swap1\n      pop\n      jump\t// out\n        /* \"#utility.yul\":1245:1354   */\n    tag_28:\n        /* \"#utility.yul\":1326:1347   */\n      tag_51\n        /* \"#utility.yul\":1341:1346   */\n      dup2\n        /* \"#utility.yul\":1326:1347   */\n      tag_27\n      jump\t// in\n    tag_51:\n        /* \"#utility.yul\":1321:1324   */\n      dup3\n        /* \"#utility.yul\":1314:1348   */\n      mstore\n        /* \"#utility.yul\":1245:1354   */\n      pop\n      pop\n      jump\t// out\n        /* \"#utility.yul\":1360:1790   */\n    tag_12:\n        /* \"#utility.yul\":1503:1507   */\n      0x00\n        /* \"#utility.yul\":1541:1543   */\n      0x60\n        /* \"#utility.yul\":1530:1539   */\n      dup3\n        /* \"#utility.yul\":1526:1544   */\n      add\n        /* \"#utility.yul\":1518:1544   */\n      swap1\n      pop\n        /* \"#utility.yul\":1554:1625   */\n      tag_53\n        /* \"#utility.yul\":1622:1623   */\n      0x00\n        /* \"#utility.yul\":1611:1620   */\n      dup4\n        /* \"#utility.yul\":1607:1624   */\n      add\n        /* \"#utility.yul\":1598:1604   */\n      dup7\n        /* \"#utility.yul\":1554:1625   */\n      tag_26\n      jump\t// in\n    tag_53:\n        /* \"#utility.yul\":1635:1707   */\n      tag_54\n        /* \"#utility.yul\":1703:1705   */\n      0x20\n        /* \"#utility.yul\":1692:1701   */\n      dup4\n        /* \"#utility.yul\":1688:1706   */\n      add\n        /* \"#utility.yul\":1679:1685   */\n      dup6\n        /* \"#utility.yul\":1635:1707   */\n      tag_26\n      jump\t// in\n    tag_54:\n        /* \"#utility.yul\":1717:1783   */\n      tag_55\n        /* \"#utility.yul\":1779:1781   */\n      0x40\n        /* \"#utility.yul\":1768:1777   */\n      dup4\n        /* \"#utility.yul\":1764:1782   */\n      add\n        /* \"#utility.yul\":1755:1761   */\n      dup5\n        /* \"#utility.yul\":1717:1783   */\n      tag_28\n      jump\t// in\n    tag_55:\n        /* \"#utility.yul\":1360:1790   */\n      swap5\n      swap4\n      pop\n      pop\n      pop\n      pop\n      jump\t// out\n        /* \"#utility.yul\":1796:1965   */\n    tag_29:\n        /* \"#utility.yul\":1880:1891   */\n      0x00\n        /* \"#utility.yul\":1914:1920   */\n      dup3\n        /* \"#utility.yul\":1909:1912   */\n      dup3\n        /* \"#utility.yul\":1902:1921   */\n      mstore\n        /* \"#utility.yul\":1954:1958   */\n      0x20\n        /* \"#utility.yul\":1949:1952   */\n      dup3\n        /* \"#utility.yul\":1945:1959   */\n      add\n        /* \"#utility.yul\":1930:1959   */\n      swap1\n      pop\n        /* \"#utility.yul\":1796:1965   */\n      swap3\n      swap2\n      pop\n      pop\n      jump\t// out\n        /* \"#utility.yul\":1971:2195   */\n    tag_30:\n        /* \"#utility.yul\":2111:2145   */\n      0x4c6f732070756e746f7320646562656e20736572207375706572696f72206120\n        /* \"#utility.yul\":2107:2108   */\n      0x00\n        /* \"#utility.yul\":2099:2105   */\n      dup3\n        /* \"#utility.yul\":2095:2109   */\n      add\n        /* \"#utility.yul\":2088:2146   */\n      mstore\n        /* \"#utility.yul\":2180:2187   */\n      0x6365726f2e000000000000000000000000000000000000000000000000000000\n        /* \"#utility.yul\":2175:2177   */\n      0x20\n        /* \"#utility.yul\":2167:2173   */\n      dup3\n        /* \"#utility.yul\":2163:2178   */\n      add\n        /* \"#utility.yul\":2156:2188   */\n      mstore\n        /* \"#utility.yul\":1971:2195   */\n      pop\n      jump\t// out\n        /* \"#utility.yul\":2201:2567   */\n    tag_31:\n        /* \"#utility.yul\":2343:2346   */\n      0x00\n        /* \"#utility.yul\":2364:2431   */\n      tag_59\n        /* \"#utility.yul\":2428:2430   */\n      0x25\n        /* \"#utility.yul\":2423:2426   */\n      dup4\n        /* \"#utility.yul\":2364:2431   */\n      tag_29\n      jump\t// in\n    tag_59:\n        /* \"#utility.yul\":2357:2431   */\n      swap2\n      pop\n        /* \"#utility.yul\":2440:2533   */\n      tag_60\n        /* \"#utility.yul\":2529:2532   */\n      dup3\n        /* \"#utility.yul\":2440:2533   */\n      tag_30\n      jump\t// in\n    tag_60:\n        /* \"#utility.yul\":2558:2560   */\n      0x40\n        /* \"#utility.yul\":2553:2556   */\n      dup3\n        /* \"#utility.yul\":2549:2561   */\n      add\n        /* \"#utility.yul\":2542:2561   */\n      swap1\n      pop\n        /* \"#utility.yul\":2201:2567   */\n      swap2\n      swap1\n      pop\n      jump\t// out\n        /* \"#utility.yul\":2573:2992   */\n    tag_16:\n        /* \"#utility.yul\":2739:2743   */\n      0x00\n        /* \"#utility.yul\":2777:2779   */\n      0x20\n        /* \"#utility.yul\":2766:2775   */\n      dup3\n        /* \"#utility.yul\":2762:2780   */\n      add\n        /* \"#utility.yul\":2754:2780   */\n      swap1\n      pop\n        /* \"#utility.yul\":2826:2835   */\n      dup2\n        /* \"#utility.yul\":2820:2824   */\n      dup2\n        /* \"#utility.yul\":2816:2836   */\n      sub\n        /* \"#utility.yul\":2812:2813   */\n      0x00\n        /* \"#utility.yul\":2801:2810   */\n      dup4\n        /* \"#utility.yul\":2797:2814   */\n      add\n        /* \"#utility.yul\":2790:2837   */\n      mstore\n        /* \"#utility.yul\":2854:2985   */\n      tag_62\n        /* \"#utility.yul\":2980:2984   */\n      dup2\n        /* \"#utility.yul\":2854:2985   */\n      tag_31\n      jump\t// in\n    tag_62:\n        /* \"#utility.yul\":2846:2985   */\n      swap1\n      pop\n        /* \"#utility.yul\":2573:2992   */\n      swap2\n      swap1\n      pop\n      jump\t// out\n        /* \"#utility.yul\":2998:3178   */\n    tag_32:\n        /* \"#utility.yul\":3046:3123   */\n      0x4e487b7100000000000000000000000000000000000000000000000000000000\n        /* \"#utility.yul\":3043:3044   */\n      0x00\n        /* \"#utility.yul\":3036:3124   */\n      mstore\n        /* \"#utility.yul\":3143:3147   */\n      0x11\n        /* \"#utility.yul\":3140:3141   */\n      0x04\n        /* \"#utility.yul\":3133:3148   */\n      mstore\n        /* \"#utility.yul\":3167:3171   */\n      0x24\n        /* \"#utility.yul\":3164:3165   */\n      0x00\n        /* \"#utility.yul\":3157:3172   */\n      revert\n        /* \"#utility.yul\":3184:3375   */\n    tag_18:\n        /* \"#utility.yul\":3224:3227   */\n      0x00\n        /* \"#utility.yul\":3243:3263   */\n      tag_65\n        /* \"#utility.yul\":3261:3262   */\n      dup3\n        /* \"#utility.yul\":3243:3263   */\n      tag_23\n      jump\t// in\n    tag_65:\n        /* \"#utility.yul\":3238:3263   */\n      swap2\n      pop\n        /* \"#utility.yul\":3277:3297   */\n      tag_66\n        /* \"#utility.yul\":3295:3296   */\n      dup4\n        /* \"#utility.yul\":3277:3297   */\n      tag_23\n      jump\t// in\n    tag_66:\n        /* \"#utility.yul\":3272:3297   */\n      swap3\n      pop\n        /* \"#utility.yul\":3320:3321   */\n      dup3\n        /* \"#utility.yul\":3317:3318   */\n      dup3\n        /* \"#utility.yul\":3313:3322   */\n      add\n        /* \"#utility.yul\":3306:3322   */\n      swap1\n      pop\n        /* \"#utility.yul\":3341:3344   */\n      dup1\n        /* \"#utility.yul\":3338:3339   */\n      dup3\n        /* \"#utility.yul\":3335:3345   */\n      gt\n        /* \"#utility.yul\":3332:3368   */\n      iszero\n      tag_67\n      jumpi\n        /* \"#utility.yul\":3348:3366   */\n      tag_68\n      tag_32\n      jump\t// in\n    tag_68:\n        /* \"#utility.yul\":3332:3368   */\n    tag_67:\n        /* \"#utility.yul\":3184:3375   */\n      swap3\n      swap2\n      pop\n      pop\n      jump\t// out\n\n    auxdata: 0xa26469706673582212203dfa9cd487dc46227a35254a99f1687d93dff73dd4a36e2cd7a2dcfb15325ae864736f6c634300081a0033\n}\n",
				"bytecode": {
					"linkReferences": {},
					"object": "60806040525f6001553480156012575f80fd5b50604051610386380380610386833981810160405281019060329190606f565b805f81905550506095565b5f80fd5b5f819050919050565b6051816041565b8114605a575f80fd5b50565b5f81519050606981604a565b92915050565b5f602082840312156081576080603d565b5b5f608c84828501605d565b91505092915050565b6102e4806100a25f395ff3fe608060405234801561000f575f80fd5b5060043610610034575f3560e01c8063ab02353c14610038578063eab0a73714610054575b5f80fd5b610052600480360381019061004d9190610127565b610074565b005b61005c6100d1565b60405161006b9392919061017b565b60405180910390f35b5f81116100b6576040517f08c379a00000000000000000000000000000000000000000000000000000000081526004016100ad90610230565b60405180910390fd5b8060015f8282546100c7919061027b565b9250508190555050565b5f805f805f54600154101590505f546001548293509350935050909192565b5f80fd5b5f819050919050565b610106816100f4565b8114610110575f80fd5b50565b5f81359050610121816100fd565b92915050565b5f6020828403121561013c5761013b6100f0565b5b5f61014984828501610113565b91505092915050565b61015b816100f4565b82525050565b5f8115159050919050565b61017581610161565b82525050565b5f60608201905061018e5f830186610152565b61019b6020830185610152565b6101a8604083018461016c565b949350505050565b5f82825260208201905092915050565b7f4c6f732070756e746f7320646562656e20736572207375706572696f722061205f8201527f6365726f2e000000000000000000000000000000000000000000000000000000602082015250565b5f61021a6025836101b0565b9150610225826101c0565b604082019050919050565b5f6020820190508181035f8301526102478161020e565b9050919050565b7f4e487b71000000000000000000000000000000000000000000000000000000005f52601160045260245ffd5b5f610285826100f4565b9150610290836100f4565b92508282019050808211156102a8576102a761024e565b5b9291505056fea26469706673582212203dfa9cd487dc46227a35254a99f1687d93dff73dd4a36e2cd7a2dcfb15325ae864736f6c634300081a0033",
					"opcodes": "PUSH1 0x80 PUSH1 0x40 MSTORE PUSH0 PUSH1 0x1 SSTORE CALLVALUE DUP1 ISZERO PUSH1 0x12 JUMPI PUSH0 DUP1 REVERT JUMPDEST POP PUSH1 0x40 MLOAD PUSH2 0x386 CODESIZE SUB DUP1 PUSH2 0x386 DUP4 CODECOPY DUP2 DUP2 ADD PUSH1 0x40 MSTORE DUP2 ADD SWAP1 PUSH1 0x32 SWAP2 SWAP1 PUSH1 0x6F JUMP JUMPDEST DUP1 PUSH0 DUP2 SWAP1 SSTORE POP POP PUSH1 0x95 JUMP JUMPDEST PUSH0 DUP1 REVERT JUMPDEST PUSH0 DUP2 SWAP1 POP SWAP2 SWAP1 POP JUMP JUMPDEST PUSH1 0x51 DUP2 PUSH1 0x41 JUMP JUMPDEST DUP2 EQ PUSH1 0x5A JUMPI PUSH0 DUP1 REVERT JUMPDEST POP JUMP JUMPDEST PUSH0 DUP2 MLOAD SWAP1 POP PUSH1 0x69 DUP2 PUSH1 0x4A JUMP JUMPDEST SWAP3 SWAP2 POP POP JUMP JUMPDEST PUSH0 PUSH1 0x20 DUP3 DUP5 SUB SLT ISZERO PUSH1 0x81 JUMPI PUSH1 0x80 PUSH1 0x3D JUMP JUMPDEST JUMPDEST PUSH0 PUSH1 0x8C DUP5 DUP3 DUP6 ADD PUSH1 0x5D JUMP JUMPDEST SWAP2 POP POP SWAP3 SWAP2 POP POP JUMP JUMPDEST PUSH2 0x2E4 DUP1 PUSH2 0xA2 PUSH0 CODECOPY PUSH0 RETURN INVALID PUSH1 0x80 PUSH1 0x40 MSTORE CALLVALUE DUP1 ISZERO PUSH2 0xF JUMPI PUSH0 DUP1 REVERT JUMPDEST POP PUSH1 0x4 CALLDATASIZE LT PUSH2 0x34 JUMPI PUSH0 CALLDATALOAD PUSH1 0xE0 SHR DUP1 PUSH4 0xAB02353C EQ PUSH2 0x38 JUMPI DUP1 PUSH4 0xEAB0A737 EQ PUSH2 0x54 JUMPI JUMPDEST PUSH0 DUP1 REVERT JUMPDEST PUSH2 0x52 PUSH1 0x4 DUP1 CALLDATASIZE SUB DUP2 ADD SWAP1 PUSH2 0x4D SWAP2 SWAP1 PUSH2 0x127 JUMP JUMPDEST PUSH2 0x74 JUMP JUMPDEST STOP JUMPDEST PUSH2 0x5C PUSH2 0xD1 JUMP JUMPDEST PUSH1 0x40 MLOAD PUSH2 0x6B SWAP4 SWAP3 SWAP2 SWAP1 PUSH2 0x17B JUMP JUMPDEST PUSH1 0x40 MLOAD DUP1 SWAP2 SUB SWAP1 RETURN JUMPDEST PUSH0 DUP2 GT PUSH2 0xB6 JUMPI PUSH1 0x40 MLOAD PUSH32 0x8C379A000000000000000000000000000000000000000000000000000000000 DUP2 MSTORE PUSH1 0x4 ADD PUSH2 0xAD SWAP1 PUSH2 0x230 JUMP JUMPDEST PUSH1 0x40 MLOAD DUP1 SWAP2 SUB SWAP1 REVERT JUMPDEST DUP1 PUSH1 0x1 PUSH0 DUP3 DUP3 SLOAD PUSH2 0xC7 SWAP2 SWAP1 PUSH2 0x27B JUMP JUMPDEST SWAP3 POP POP DUP2 SWAP1 SSTORE POP POP JUMP JUMPDEST PUSH0 DUP1 PUSH0 DUP1 PUSH0 SLOAD PUSH1 0x1 SLOAD LT ISZERO SWAP1 POP PUSH0 SLOAD PUSH1 0x1 SLOAD DUP3 SWAP4 POP SWAP4 POP SWAP4 POP POP SWAP1 SWAP2 SWAP3 JUMP JUMPDEST PUSH0 DUP1 REVERT JUMPDEST PUSH0 DUP2 SWAP1 POP SWAP2 SWAP1 POP JUMP JUMPDEST PUSH2 0x106 DUP2 PUSH2 0xF4 JUMP JUMPDEST DUP2 EQ PUSH2 0x110 JUMPI PUSH0 DUP1 REVERT JUMPDEST POP JUMP JUMPDEST PUSH0 DUP2 CALLDATALOAD SWAP1 POP PUSH2 0x121 DUP2 PUSH2 0xFD JUMP JUMPDEST SWAP3 SWAP2 POP POP JUMP JUMPDEST PUSH0 PUSH1 0x20 DUP3 DUP5 SUB SLT ISZERO PUSH2 0x13C JUMPI PUSH2 0x13B PUSH2 0xF0 JUMP JUMPDEST JUMPDEST PUSH0 PUSH2 0x149 DUP5 DUP3 DUP6 ADD PUSH2 0x113 JUMP JUMPDEST SWAP2 POP POP SWAP3 SWAP2 POP POP JUMP JUMPDEST PUSH2 0x15B DUP2 PUSH2 0xF4 JUMP JUMPDEST DUP3 MSTORE POP POP JUMP JUMPDEST PUSH0 DUP2 ISZERO ISZERO SWAP1 POP SWAP2 SWAP1 POP JUMP JUMPDEST PUSH2 0x175 DUP2 PUSH2 0x161 JUMP JUMPDEST DUP3 MSTORE POP POP JUMP JUMPDEST PUSH0 PUSH1 0x60 DUP3 ADD SWAP1 POP PUSH2 0x18E PUSH0 DUP4 ADD DUP7 PUSH2 0x152 JUMP JUMPDEST PUSH2 0x19B PUSH1 0x20 DUP4 ADD DUP6 PUSH2 0x152 JUMP JUMPDEST PUSH2 0x1A8 PUSH1 0x40 DUP4 ADD DUP5 PUSH2 0x16C JUMP JUMPDEST SWAP5 SWAP4 POP POP POP POP JUMP JUMPDEST PUSH0 DUP3 DUP3 MSTORE PUSH1 0x20 DUP3 ADD SWAP1 POP SWAP3 SWAP2 POP POP JUMP JUMPDEST PUSH32 0x4C6F732070756E746F7320646562656E20736572207375706572696F72206120 PUSH0 DUP3 ADD MSTORE PUSH32 0x6365726F2E000000000000000000000000000000000000000000000000000000 PUSH1 0x20 DUP3 ADD MSTORE POP JUMP JUMPDEST PUSH0 PUSH2 0x21A PUSH1 0x25 DUP4 PUSH2 0x1B0 JUMP JUMPDEST SWAP2 POP PUSH2 0x225 DUP3 PUSH2 0x1C0 JUMP JUMPDEST PUSH1 0x40 DUP3 ADD SWAP1 POP SWAP2 SWAP1 POP JUMP JUMPDEST PUSH0 PUSH1 0x20 DUP3 ADD SWAP1 POP DUP2 DUP2 SUB PUSH0 DUP4 ADD MSTORE PUSH2 0x247 DUP2 PUSH2 0x20E JUMP JUMPDEST SWAP1 POP SWAP2 SWAP1 POP JUMP JUMPDEST PUSH32 0x4E487B7100000000000000000000000000000000000000000000000000000000 PUSH0 MSTORE PUSH1 0x11 PUSH1 0x4 MSTORE PUSH1 0x24 PUSH0 REVERT JUMPDEST PUSH0 PUSH2 0x285 DUP3 PUSH2 0xF4 JUMP JUMPDEST SWAP2 POP PUSH2 0x290 DUP4 PUSH2 0xF4 JUMP JUMPDEST SWAP3 POP DUP3 DUP3 ADD SWAP1 POP DUP1 DUP3 GT ISZERO PUSH2 0x2A8 JUMPI PUSH2 0x2A7 PUSH2 0x24E JUMP JUMPDEST JUMPDEST SWAP3 SWAP2 POP POP JUMP INVALID LOG2 PUSH5 0x6970667358 0x22 SLT KECCAK256 RETURNDATASIZE STATICCALL SWAP13 0xD4 DUP8 0xDC CHAINID 0x22 PUSH27 0x35254A99F1687D93DFF73DD4A36E2CD7A2DCFB15325AE864736F6C PUSH4 0x4300081A STOP CALLER "
				},
				"gasEstimates": {
					"creation": {
						"codeDepositCost": "148000",
						"executionCost": "infinite",
						"totalCost": "infinite"
					},
					"external": {
						"AcumularPuntos(uint256)": "infinite",
						"ConsultarEstadoDeRecompensa()": "infinite"
					}
				},
				"methodIdentifiers": {
					"AcumularPuntos(uint256)": "ab02353c",
					"ConsultarEstadoDeRecompensa()": "eab0a737"
				}
			},
			"storageLayout": {
				"storage": [
					{
						"astId": 3,
						"contract": "contracts/SistemaDeRecompensas.sol:SistemaDeRecompensas",
						"label": "UmbralParaRecompensa",
						"offset": 0,
						"slot": "0",
						"type": "t_uint256"
					},
					{
						"astId": 6,
						"contract": "contracts/SistemaDeRecompensas.sol:SistemaDeRecompensas",
						"label": "puntosUsuario",
						"offset": 0,
						"slot": "1",
						"type": "t_uint256"
					}
				],
				"types": {
					"t_uint256": {
						"encoding": "inplace",
						"label": "uint256",
						"numberOfBytes": "32"
					}
				}
			},
			"userdoc": {
				"kind": "user",
				"methods": {},
				"version": 1
			}
		}
	}
}