{
	"data": {
		"bytecode": {
			"linkReferences": {},
			"object": "6080604052348015600e575f80fd5b506040516105ff3803806105ff8339818101604052810190602e919060ab565b805f819055503360025f6101000a81548173ffffffffffffffffffffffffffffffffffffffff021916908373ffffffffffffffffffffffffffffffffffffffff1602179055505060d1565b5f80fd5b5f819050919050565b608d81607d565b81146096575f80fd5b50565b5f8151905060a5816086565b92915050565b5f6020828403121560bd5760bc6079565b5b5f60c8848285016099565b91505092915050565b610521806100de5f395ff3fe608060405234801561000f575f80fd5b5060043610610055575f3560e01c806350575465146100595780635aef9e50146100785780637062b97d1461009657806382d84cb8146100b4578063914a6a13146100d0575b5f80fd5b6100616100ee565b60405161006f92919061025e565b60405180910390f35b61008061010b565b60405161008d9190610285565b60405180910390f35b61009e610111565b6040516100ab91906102dd565b60405180910390f35b6100ce60048036038101906100c99190610324565b610136565b005b6100d8610215565b6040516100e59190610285565b60405180910390f35b5f805f6100fc60015461021a565b90506001548192509250509091565b60015481565b60025f9054906101000a900473ffffffffffffffffffffffffffffffffffffffff1681565b60025f9054906101000a900473ffffffffffffffffffffffffffffffffffffffff1673ffffffffffffffffffffffffffffffffffffffff163373ffffffffffffffffffffffffffffffffffffffff16146101c5576040517f08c379a00000000000000000000000000000000000000000000000000000000081526004016101bc906103cf565b60405180910390fd5b806001819055505f6101d68261021a565b90507f3f940ac38346633befdc35c5eda8ea91cfc1b65a5b228e81ef647b9189167dcb828260405161020992919061025e565b60405180910390a15050565b5f5481565b5f60645f548361022a919061041a565b6102349190610488565b8261023f91906104b8565b9050919050565b5f819050919050565b61025881610246565b82525050565b5f6040820190506102715f83018561024f565b61027e602083018461024f565b9392505050565b5f6020820190506102985f83018461024f565b92915050565b5f73ffffffffffffffffffffffffffffffffffffffff82169050919050565b5f6102c78261029e565b9050919050565b6102d7816102bd565b82525050565b5f6020820190506102f05f8301846102ce565b92915050565b5f80fd5b61030381610246565b811461030d575f80fd5b50565b5f8135905061031e816102fa565b92915050565b5f60208284031215610339576103386102f6565b5b5f61034684828501610310565b91505092915050565b5f82825260208201905092915050565b7f536f6c6f20656c2061646d696e6973747261646f7220707565646520656a65635f8201527f7574617220657374612066756e63696f6e000000000000000000000000000000602082015250565b5f6103b960318361034f565b91506103c48261035f565b604082019050919050565b5f6020820190508181035f8301526103e6816103ad565b9050919050565b7f4e487b71000000000000000000000000000000000000000000000000000000005f52601160045260245ffd5b5f61042482610246565b915061042f83610246565b925082820261043d81610246565b91508282048414831517610454576104536103ed565b5b5092915050565b7f4e487b71000000000000000000000000000000000000000000000000000000005f52601260045260245ffd5b5f61049282610246565b915061049d83610246565b9250826104ad576104ac61045b565b5b828204905092915050565b5f6104c282610246565b91506104cd83610246565b92508282039050818111156104e5576104e46103ed565b5b9291505056fea2646970667358221220417b745a725db649f0bc99813bdc468c5bd51ea50b353b5cf507e00e1ea6740f64736f6c634300081a0033",
			"opcodes": "PUSH1 0x80 PUSH1 0x40 MSTORE CALLVALUE DUP1 ISZERO PUSH1 0xE JUMPI PUSH0 DUP1 REVERT JUMPDEST POP PUSH1 0x40 MLOAD PUSH2 0x5FF CODESIZE SUB DUP1 PUSH2 0x5FF DUP4 CODECOPY DUP2 DUP2 ADD PUSH1 0x40 MSTORE DUP2 ADD SWAP1 PUSH1 0x2E SWAP2 SWAP1 PUSH1 0xAB JUMP JUMPDEST DUP1 PUSH0 DUP2 SWAP1 SSTORE POP CALLER PUSH1 0x2 PUSH0 PUSH2 0x100 EXP DUP2 SLOAD DUP2 PUSH20 0xFFFFFFFFFFFFFFFFFFFFFFFFFFFFFFFFFFFFFFFF MUL NOT AND SWAP1 DUP4 PUSH20 0xFFFFFFFFFFFFFFFFFFFFFFFFFFFFFFFFFFFFFFFF AND MUL OR SWAP1 SSTORE POP POP PUSH1 0xD1 JUMP JUMPDEST PUSH0 DUP1 REVERT JUMPDEST PUSH0 DUP2 SWAP1 POP SWAP2 SWAP1 POP JUMP JUMPDEST PUSH1 0x8D DUP2 PUSH1 0x7D JUMP JUMPDEST DUP2 EQ PUSH1 0x96 JUMPI PUSH0 DUP1 REVERT JUMPDEST POP JUMP JUMPDEST PUSH0 DUP2 MLOAD SWAP1 POP PUSH1 0xA5 DUP2 PUSH1 0x86 JUMP JUMPDEST SWAP3 SWAP2 POP POP JUMP JUMPDEST PUSH0 PUSH1 0x20 DUP3 DUP5 SUB SLT ISZERO PUSH1 0xBD JUMPI PUSH1 0xBC PUSH1 0x79 JUMP JUMPDEST JUMPDEST PUSH0 PUSH1 0xC8 DUP5 DUP3 DUP6 ADD PUSH1 0x99 JUMP JUMPDEST SWAP2 POP POP SWAP3 SWAP2 POP POP JUMP JUMPDEST PUSH2 0x521 DUP1 PUSH2 0xDE PUSH0 CODECOPY PUSH0 RETURN INVALID PUSH1 0x80 PUSH1 0x40 MSTORE CALLVALUE DUP1 ISZERO PUSH2 0xF JUMPI PUSH0 DUP1 REVERT JUMPDEST POP PUSH1 0x4 CALLDATASIZE LT PUSH2 0x55 JUMPI PUSH0 CALLDATALOAD PUSH1 0xE0 SHR DUP1 PUSH4 0x50575465 EQ PUSH2 0x59 JUMPI DUP1 PUSH4 0x5AEF9E50 EQ PUSH2 0x78 JUMPI DUP1 PUSH4 0x7062B97D EQ PUSH2 0x96 JUMPI DUP1 PUSH4 0x82D84CB8 EQ PUSH2 0xB4 JUMPI DUP1 PUSH4 0x914A6A13 EQ PUSH2 0xD0 JUMPI JUMPDEST PUSH0 DUP1 REVERT JUMPDEST PUSH2 0x61 PUSH2 0xEE JUMP JUMPDEST PUSH1 0x40 MLOAD PUSH2 0x6F SWAP3 SWAP2 SWAP1 PUSH2 0x25E JUMP JUMPDEST PUSH1 0x40 MLOAD DUP1 SWAP2 SUB SWAP1 RETURN JUMPDEST PUSH2 0x80 PUSH2 0x10B JUMP JUMPDEST PUSH1 0x40 MLOAD PUSH2 0x8D SWAP2 SWAP1 PUSH2 0x285 JUMP JUMPDEST PUSH1 0x40 MLOAD DUP1 SWAP2 SUB SWAP1 RETURN JUMPDEST PUSH2 0x9E PUSH2 0x111 JUMP JUMPDEST PUSH1 0x40 MLOAD PUSH2 0xAB SWAP2 SWAP1 PUSH2 0x2DD JUMP JUMPDEST PUSH1 0x40 MLOAD DUP1 SWAP2 SUB SWAP1 RETURN JUMPDEST PUSH2 0xCE PUSH1 0x4 DUP1 CALLDATASIZE SUB DUP2 ADD SWAP1 PUSH2 0xC9 SWAP2 SWAP1 PUSH2 0x324 JUMP JUMPDEST PUSH2 0x136 JUMP JUMPDEST STOP JUMPDEST PUSH2 0xD8 PUSH2 0x215 JUMP JUMPDEST PUSH1 0x40 MLOAD PUSH2 0xE5 SWAP2 SWAP1 PUSH2 0x285 JUMP JUMPDEST PUSH1 0x40 MLOAD DUP1 SWAP2 SUB SWAP1 RETURN JUMPDEST PUSH0 DUP1 PUSH0 PUSH2 0xFC PUSH1 0x1 SLOAD PUSH2 0x21A JUMP JUMPDEST SWAP1 POP PUSH1 0x1 SLOAD DUP2 SWAP3 POP SWAP3 POP POP SWAP1 SWAP2 JUMP JUMPDEST PUSH1 0x1 SLOAD DUP2 JUMP JUMPDEST PUSH1 0x2 PUSH0 SWAP1 SLOAD SWAP1 PUSH2 0x100 EXP SWAP1 DIV PUSH20 0xFFFFFFFFFFFFFFFFFFFFFFFFFFFFFFFFFFFFFFFF AND DUP2 JUMP JUMPDEST PUSH1 0x2 PUSH0 SWAP1 SLOAD SWAP1 PUSH2 0x100 EXP SWAP1 DIV PUSH20 0xFFFFFFFFFFFFFFFFFFFFFFFFFFFFFFFFFFFFFFFF AND PUSH20 0xFFFFFFFFFFFFFFFFFFFFFFFFFFFFFFFFFFFFFFFF AND CALLER PUSH20 0xFFFFFFFFFFFFFFFFFFFFFFFFFFFFFFFFFFFFFFFF AND EQ PUSH2 0x1C5 JUMPI PUSH1 0x40 MLOAD PUSH32 0x8C379A000000000000000000000000000000000000000000000000000000000 DUP2 MSTORE PUSH1 0x4 ADD PUSH2 0x1BC SWAP1 PUSH2 0x3CF JUMP JUMPDEST PUSH1 0x40 MLOAD DUP1 SWAP2 SUB SWAP1 REVERT JUMPDEST DUP1 PUSH1 0x1 DUP2 SWAP1 SSTORE POP PUSH0 PUSH2 0x1D6 DUP3 PUSH2 0x21A JUMP JUMPDEST SWAP1 POP PUSH32 0x3F940AC38346633BEFDC35C5EDA8EA91CFC1B65A5B228E81EF647B9189167DCB DUP3 DUP3 PUSH1 0x40 MLOAD PUSH2 0x209 SWAP3 SWAP2 SWAP1 PUSH2 0x25E JUMP JUMPDEST PUSH1 0x40 MLOAD DUP1 SWAP2 SUB SWAP1 LOG1 POP POP JUMP JUMPDEST PUSH0 SLOAD DUP2 JUMP JUMPDEST PUSH0 PUSH1 0x64 PUSH0 SLOAD DUP4 PUSH2 0x22A SWAP2 SWAP1 PUSH2 0x41A JUMP JUMPDEST PUSH2 0x234 SWAP2 SWAP1 PUSH2 0x488 JUMP JUMPDEST DUP3 PUSH2 0x23F SWAP2 SWAP1 PUSH2 0x4B8 JUMP JUMPDEST SWAP1 POP SWAP2 SWAP1 POP JUMP JUMPDEST PUSH0 DUP2 SWAP1 POP SWAP2 SWAP1 POP JUMP JUMPDEST PUSH2 0x258 DUP2 PUSH2 0x246 JUMP JUMPDEST DUP3 MSTORE POP POP JUMP JUMPDEST PUSH0 PUSH1 0x40 DUP3 ADD SWAP1 POP PUSH2 0x271 PUSH0 DUP4 ADD DUP6 PUSH2 0x24F JUMP JUMPDEST PUSH2 0x27E PUSH1 0x20 DUP4 ADD DUP5 PUSH2 0x24F JUMP JUMPDEST SWAP4 SWAP3 POP POP POP JUMP JUMPDEST PUSH0 PUSH1 0x20 DUP3 ADD SWAP1 POP PUSH2 0x298 PUSH0 DUP4 ADD DUP5 PUSH2 0x24F JUMP JUMPDEST SWAP3 SWAP2 POP POP JUMP JUMPDEST PUSH0 PUSH20 0xFFFFFFFFFFFFFFFFFFFFFFFFFFFFFFFFFFFFFFFF DUP3 AND SWAP1 POP SWAP2 SWAP1 POP JUMP JUMPDEST PUSH0 PUSH2 0x2C7 DUP3 PUSH2 0x29E JUMP JUMPDEST SWAP1 POP SWAP2 SWAP1 POP JUMP JUMPDEST PUSH2 0x2D7 DUP2 PUSH2 0x2BD JUMP JUMPDEST DUP3 MSTORE POP POP JUMP JUMPDEST PUSH0 PUSH1 0x20 DUP3 ADD SWAP1 POP PUSH2 0x2F0 PUSH0 DUP4 ADD DUP5 PUSH2 0x2CE JUMP JUMPDEST SWAP3 SWAP2 POP POP JUMP JUMPDEST PUSH0 DUP1 REVERT JUMPDEST PUSH2 0x303 DUP2 PUSH2 0x246 JUMP JUMPDEST DUP2 EQ PUSH2 0x30D JUMPI PUSH0 DUP1 REVERT JUMPDEST POP JUMP JUMPDEST PUSH0 DUP2 CALLDATALOAD SWAP1 POP PUSH2 0x31E DUP2 PUSH2 0x2FA JUMP JUMPDEST SWAP3 SWAP2 POP POP JUMP JUMPDEST PUSH0 PUSH1 0x20 DUP3 DUP5 SUB SLT ISZERO PUSH2 0x339 JUMPI PUSH2 0x338 PUSH2 0x2F6 JUMP JUMPDEST JUMPDEST PUSH0 PUSH2 0x346 DUP5 DUP3 DUP6 ADD PUSH2 0x310 JUMP JUMPDEST SWAP2 POP POP SWAP3 SWAP2 POP POP JUMP JUMPDEST PUSH0 DUP3 DUP3 MSTORE PUSH1 0x20 DUP3 ADD SWAP1 POP SWAP3 SWAP2 POP POP JUMP JUMPDEST PUSH32 0x536F6C6F20656C2061646D696E6973747261646F7220707565646520656A6563 PUSH0 DUP3 ADD MSTORE PUSH32 0x7574617220657374612066756E63696F6E000000000000000000000000000000 PUSH1 0x20 DUP3 ADD MSTORE POP JUMP JUMPDEST PUSH0 PUSH2 0x3B9 PUSH1 0x31 DUP4 PUSH2 0x34F JUMP JUMPDEST SWAP2 POP PUSH2 0x3C4 DUP3 PUSH2 0x35F JUMP JUMPDEST PUSH1 0x40 DUP3 ADD SWAP1 POP SWAP2 SWAP1 POP JUMP JUMPDEST PUSH0 PUSH1 0x20 DUP3 ADD SWAP1 POP DUP2 DUP2 SUB PUSH0 DUP4 ADD MSTORE PUSH2 0x3E6 DUP2 PUSH2 0x3AD JUMP JUMPDEST SWAP1 POP SWAP2 SWAP1 POP JUMP JUMPDEST PUSH32 0x4E487B7100000000000000000000000000000000000000000000000000000000 PUSH0 MSTORE PUSH1 0x11 PUSH1 0x4 MSTORE PUSH1 0x24 PUSH0 REVERT JUMPDEST PUSH0 PUSH2 0x424 DUP3 PUSH2 0x246 JUMP JUMPDEST SWAP2 POP PUSH2 0x42F DUP4 PUSH2 0x246 JUMP JUMPDEST SWAP3 POP DUP3 DUP3 MUL PUSH2 0x43D DUP2 PUSH2 0x246 JUMP JUMPDEST SWAP2 POP DUP3 DUP3 DIV DUP5 EQ DUP4 ISZERO OR PUSH2 0x454 JUMPI PUSH2 0x453 PUSH2 0x3ED JUMP JUMPDEST JUMPDEST POP SWAP3 SWAP2 POP POP JUMP JUMPDEST PUSH32 0x4E487B7100000000000000000000000000000000000000000000000000000000 PUSH0 MSTORE PUSH1 0x12 PUSH1 0x4 MSTORE PUSH1 0x24 PUSH0 REVERT JUMPDEST PUSH0 PUSH2 0x492 DUP3 PUSH2 0x246 JUMP JUMPDEST SWAP2 POP PUSH2 0x49D DUP4 PUSH2 0x246 JUMP JUMPDEST SWAP3 POP DUP3 PUSH2 0x4AD JUMPI PUSH2 0x4AC PUSH2 0x45B JUMP JUMPDEST JUMPDEST DUP3 DUP3 DIV SWAP1 POP SWAP3 SWAP2 POP POP JUMP JUMPDEST PUSH0 PUSH2 0x4C2 DUP3 PUSH2 0x246 JUMP JUMPDEST SWAP2 POP PUSH2 0x4CD DUP4 PUSH2 0x246 JUMP JUMPDEST SWAP3 POP DUP3 DUP3 SUB SWAP1 POP DUP2 DUP2 GT ISZERO PUSH2 0x4E5 JUMPI PUSH2 0x4E4 PUSH2 0x3ED JUMP JUMPDEST JUMPDEST SWAP3 SWAP2 POP POP JUMP INVALID LOG2 PUSH5 0x6970667358 0x22 SLT KECCAK256 COINBASE PUSH28 0x745A725DB649F0BC99813BDC468C5BD51EA50B353B5CF507E00E1EA6 PUSH21 0xF64736F6C634300081A0033000000000000000000 "
		},
		"gasEstimates": {
			"creation": {
				"codeDepositCost": "262600",
				"executionCost": "infinite",
				"totalCost": "infinite"
			},
			"external": {
				"administrador()": "2530",
				"costoMensual()": "2425",
				"establecerSuscripcionYCalcularCosto(uint256)": "infinite",
				"obtenerCostos()": "infinite",
				"tasaDescuento()": "2490"
			},
			"internal": {
				"calcularCostoConDescuento(uint256)": "infinite"
			}
		},
		"methodIdentifiers": {
			"administrador()": "7062b97d",
			"costoMensual()": "5aef9e50",
			"establecerSuscripcionYCalcularCosto(uint256)": "82d84cb8",
			"obtenerCostos()": "50575465",
			"tasaDescuento()": "914a6a13"
		}
	},
	"abi": [
		{
			"inputs": [
				{
					"internalType": "uint256",
					"name": "_tasaDescuento",
					"type": "uint256"
				}
			],
			"stateMutability": "nonpayable",
			"type": "constructor"
		},
		{
			"anonymous": false,
			"inputs": [
				{
					"indexed": false,
					"internalType": "uint256",
					"name": "costoMensual",
					"type": "uint256"
				},
				{
					"indexed": false,
					"internalType": "uint256",
					"name": "costoConDescuento",
					"type": "uint256"
				}
			],
			"name": "CostosDeSuscripcion",
			"type": "event"
		},
		{
			"inputs": [],
			"name": "administrador",
			"outputs": [
				{
					"internalType": "address",
					"name": "",
					"type": "address"
				}
			],
			"stateMutability": "view",
			"type": "function"
		},
		{
			"inputs": [],
			"name": "costoMensual",
			"outputs": [
				{
					"internalType": "uint256",
					"name": "",
					"type": "uint256"
				}
			],
			"stateMutability": "view",
			"type": "function"
		},
		{
			"inputs": [
				{
					"internalType": "uint256",
					"name": "_costoMensual",
					"type": "uint256"
				}
			],
			"name": "establecerSuscripcionYCalcularCosto",
			"outputs": [],
			"stateMutability": "nonpayable",
			"type": "function"
		},
		{
			"inputs": [],
			"name": "obtenerCostos",
			"outputs": [
				{
					"internalType": "uint256",
					"name": "",
					"type": "uint256"
				},
				{
					"internalType": "uint256",
					"name": "",
					"type": "uint256"
				}
			],
			"stateMutability": "view",
			"type": "function"
		},
		{
			"inputs": [],
			"name": "tasaDescuento",
			"outputs": [
				{
					"internalType": "uint256",
					"name": "",
					"type": "uint256"
				}
			],
			"stateMutability": "view",
			"type": "function"
		}
	]
}