{
	"data": {
		"bytecode": {
			"linkReferences": {},
			"object": "60806040525f6001553480156012575f80fd5b506040516104aa3803806104aa833981810160405281019060329190606f565b805f81905550506095565b5f80fd5b5f819050919050565b6051816041565b8114605a575f80fd5b50565b5f81519050606981604a565b92915050565b5f602082840312156081576080603d565b5b5f608c84828501605d565b91505092915050565b610408806100a25f395ff3fe608060405234801561000f575f80fd5b5060043610610034575f3560e01c80633ee3cfd914610038578063933eac0b14610054575b5f80fd5b610052600480360381019061004d91906101a4565b610074565b005b61005c61014f565b60405161006b939291906101f8565b60405180910390f35b5f81116100b6576040517f08c379a00000000000000000000000000000000000000000000000000000000081526004016100ad906102ad565b60405180910390fd5b5f54600154106100fb576040517f08c379a00000000000000000000000000000000000000000000000000000000081526004016100f29061033b565b60405180910390fd5b8060015f82825461010c9190610386565b925050819055507fcd5c573e651378d52d712bdec645267ad6f5dd0b34def14a4a0b4f99f328eca260015460405161014491906103b9565b60405180910390a150565b5f805f805f546001541090505f546001548293509350935050909192565b5f80fd5b5f819050919050565b61018381610171565b811461018d575f80fd5b50565b5f8135905061019e8161017a565b92915050565b5f602082840312156101b9576101b861016d565b5b5f6101c684828501610190565b91505092915050565b6101d881610171565b82525050565b5f8115159050919050565b6101f2816101de565b82525050565b5f60608201905061020b5f8301866101cf565b61021860208301856101cf565b61022560408301846101e9565b949350505050565b5f82825260208201905092915050565b7f4c6f732070756e746f7320646562656e20736572207375706572696f722061205f8201527f6365726f2e000000000000000000000000000000000000000000000000000000602082015250565b5f61029760258361022d565b91506102a28261023d565b604082019050919050565b5f6020820190508181035f8301526102c48161028b565b9050919050565b7f557374656420686120636f6d706c657461646f20656c20756d6272616c2c206e5f8201527f6f207075656465206163756d756c6172206d61732070756e746f730000000000602082015250565b5f610325603b8361022d565b9150610330826102cb565b604082019050919050565b5f6020820190508181035f83015261035281610319565b9050919050565b7f4e487b71000000000000000000000000000000000000000000000000000000005f52601160045260245ffd5b5f61039082610171565b915061039b83610171565b92508282019050808211156103b3576103b2610359565b5b92915050565b5f6020820190506103cc5f8301846101cf565b9291505056fea26469706673582212209ceca0e4595f11b7b4bad7cb3f4e85f1d75156c49e3c00e788678e9d3e481cfe64736f6c634300081a0033",
			"opcodes": "PUSH1 0x80 PUSH1 0x40 MSTORE PUSH0 PUSH1 0x1 SSTORE CALLVALUE DUP1 ISZERO PUSH1 0x12 JUMPI PUSH0 DUP1 REVERT JUMPDEST POP PUSH1 0x40 MLOAD PUSH2 0x4AA CODESIZE SUB DUP1 PUSH2 0x4AA DUP4 CODECOPY DUP2 DUP2 ADD PUSH1 0x40 MSTORE DUP2 ADD SWAP1 PUSH1 0x32 SWAP2 SWAP1 PUSH1 0x6F JUMP JUMPDEST DUP1 PUSH0 DUP2 SWAP1 SSTORE POP POP PUSH1 0x95 JUMP JUMPDEST PUSH0 DUP1 REVERT JUMPDEST PUSH0 DUP2 SWAP1 POP SWAP2 SWAP1 POP JUMP JUMPDEST PUSH1 0x51 DUP2 PUSH1 0x41 JUMP JUMPDEST DUP2 EQ PUSH1 0x5A JUMPI PUSH0 DUP1 REVERT JUMPDEST POP JUMP JUMPDEST PUSH0 DUP2 MLOAD SWAP1 POP PUSH1 0x69 DUP2 PUSH1 0x4A JUMP JUMPDEST SWAP3 SWAP2 POP POP JUMP JUMPDEST PUSH0 PUSH1 0x20 DUP3 DUP5 SUB SLT ISZERO PUSH1 0x81 JUMPI PUSH1 0x80 PUSH1 0x3D JUMP JUMPDEST JUMPDEST PUSH0 PUSH1 0x8C DUP5 DUP3 DUP6 ADD PUSH1 0x5D JUMP JUMPDEST SWAP2 POP POP SWAP3 SWAP2 POP POP JUMP JUMPDEST PUSH2 0x408 DUP1 PUSH2 0xA2 PUSH0 CODECOPY PUSH0 RETURN INVALID PUSH1 0x80 PUSH1 0x40 MSTORE CALLVALUE DUP1 ISZERO PUSH2 0xF JUMPI PUSH0 DUP1 REVERT JUMPDEST POP PUSH1 0x4 CALLDATASIZE LT PUSH2 0x34 JUMPI PUSH0 CALLDATALOAD PUSH1 0xE0 SHR DUP1 PUSH4 0x3EE3CFD9 EQ PUSH2 0x38 JUMPI DUP1 PUSH4 0x933EAC0B EQ PUSH2 0x54 JUMPI JUMPDEST PUSH0 DUP1 REVERT JUMPDEST PUSH2 0x52 PUSH1 0x4 DUP1 CALLDATASIZE SUB DUP2 ADD SWAP1 PUSH2 0x4D SWAP2 SWAP1 PUSH2 0x1A4 JUMP JUMPDEST PUSH2 0x74 JUMP JUMPDEST STOP JUMPDEST PUSH2 0x5C PUSH2 0x14F JUMP JUMPDEST PUSH1 0x40 MLOAD PUSH2 0x6B SWAP4 SWAP3 SWAP2 SWAP1 PUSH2 0x1F8 JUMP JUMPDEST PUSH1 0x40 MLOAD DUP1 SWAP2 SUB SWAP1 RETURN JUMPDEST PUSH0 DUP2 GT PUSH2 0xB6 JUMPI PUSH1 0x40 MLOAD PUSH32 0x8C379A000000000000000000000000000000000000000000000000000000000 DUP2 MSTORE PUSH1 0x4 ADD PUSH2 0xAD SWAP1 PUSH2 0x2AD JUMP JUMPDEST PUSH1 0x40 MLOAD DUP1 SWAP2 SUB SWAP1 REVERT JUMPDEST PUSH0 SLOAD PUSH1 0x1 SLOAD LT PUSH2 0xFB JUMPI PUSH1 0x40 MLOAD PUSH32 0x8C379A000000000000000000000000000000000000000000000000000000000 DUP2 MSTORE PUSH1 0x4 ADD PUSH2 0xF2 SWAP1 PUSH2 0x33B JUMP JUMPDEST PUSH1 0x40 MLOAD DUP1 SWAP2 SUB SWAP1 REVERT JUMPDEST DUP1 PUSH1 0x1 PUSH0 DUP3 DUP3 SLOAD PUSH2 0x10C SWAP2 SWAP1 PUSH2 0x386 JUMP JUMPDEST SWAP3 POP POP DUP2 SWAP1 SSTORE POP PUSH32 0xCD5C573E651378D52D712BDEC645267AD6F5DD0B34DEF14A4A0B4F99F328ECA2 PUSH1 0x1 SLOAD PUSH1 0x40 MLOAD PUSH2 0x144 SWAP2 SWAP1 PUSH2 0x3B9 JUMP JUMPDEST PUSH1 0x40 MLOAD DUP1 SWAP2 SUB SWAP1 LOG1 POP JUMP JUMPDEST PUSH0 DUP1 PUSH0 DUP1 PUSH0 SLOAD PUSH1 0x1 SLOAD LT SWAP1 POP PUSH0 SLOAD PUSH1 0x1 SLOAD DUP3 SWAP4 POP SWAP4 POP SWAP4 POP POP SWAP1 SWAP2 SWAP3 JUMP JUMPDEST PUSH0 DUP1 REVERT JUMPDEST PUSH0 DUP2 SWAP1 POP SWAP2 SWAP1 POP JUMP JUMPDEST PUSH2 0x183 DUP2 PUSH2 0x171 JUMP JUMPDEST DUP2 EQ PUSH2 0x18D JUMPI PUSH0 DUP1 REVERT JUMPDEST POP JUMP JUMPDEST PUSH0 DUP2 CALLDATALOAD SWAP1 POP PUSH2 0x19E DUP2 PUSH2 0x17A JUMP JUMPDEST SWAP3 SWAP2 POP POP JUMP JUMPDEST PUSH0 PUSH1 0x20 DUP3 DUP5 SUB SLT ISZERO PUSH2 0x1B9 JUMPI PUSH2 0x1B8 PUSH2 0x16D JUMP JUMPDEST JUMPDEST PUSH0 PUSH2 0x1C6 DUP5 DUP3 DUP6 ADD PUSH2 0x190 JUMP JUMPDEST SWAP2 POP POP SWAP3 SWAP2 POP POP JUMP JUMPDEST PUSH2 0x1D8 DUP2 PUSH2 0x171 JUMP JUMPDEST DUP3 MSTORE POP POP JUMP JUMPDEST PUSH0 DUP2 ISZERO ISZERO SWAP1 POP SWAP2 SWAP1 POP JUMP JUMPDEST PUSH2 0x1F2 DUP2 PUSH2 0x1DE JUMP JUMPDEST DUP3 MSTORE POP POP JUMP JUMPDEST PUSH0 PUSH1 0x60 DUP3 ADD SWAP1 POP PUSH2 0x20B PUSH0 DUP4 ADD DUP7 PUSH2 0x1CF JUMP JUMPDEST PUSH2 0x218 PUSH1 0x20 DUP4 ADD DUP6 PUSH2 0x1CF JUMP JUMPDEST PUSH2 0x225 PUSH1 0x40 DUP4 ADD DUP5 PUSH2 0x1E9 JUMP JUMPDEST SWAP5 SWAP4 POP POP POP POP JUMP JUMPDEST PUSH0 DUP3 DUP3 MSTORE PUSH1 0x20 DUP3 ADD SWAP1 POP SWAP3 SWAP2 POP POP JUMP JUMPDEST PUSH32 0x4C6F732070756E746F7320646562656E20736572207375706572696F72206120 PUSH0 DUP3 ADD MSTORE PUSH32 0x6365726F2E000000000000000000000000000000000000000000000000000000 PUSH1 0x20 DUP3 ADD MSTORE POP JUMP JUMPDEST PUSH0 PUSH2 0x297 PUSH1 0x25 DUP4 PUSH2 0x22D JUMP JUMPDEST SWAP2 POP PUSH2 0x2A2 DUP3 PUSH2 0x23D JUMP JUMPDEST PUSH1 0x40 DUP3 ADD SWAP1 POP SWAP2 SWAP1 POP JUMP JUMPDEST PUSH0 PUSH1 0x20 DUP3 ADD SWAP1 POP DUP2 DUP2 SUB PUSH0 DUP4 ADD MSTORE PUSH2 0x2C4 DUP2 PUSH2 0x28B JUMP JUMPDEST SWAP1 POP SWAP2 SWAP1 POP JUMP JUMPDEST PUSH32 0x557374656420686120636F6D706C657461646F20656C20756D6272616C2C206E PUSH0 DUP3 ADD MSTORE PUSH32 0x6F207075656465206163756D756C6172206D61732070756E746F730000000000 PUSH1 0x20 DUP3 ADD MSTORE POP JUMP JUMPDEST PUSH0 PUSH2 0x325 PUSH1 0x3B DUP4 PUSH2 0x22D JUMP JUMPDEST SWAP2 POP PUSH2 0x330 DUP3 PUSH2 0x2CB JUMP JUMPDEST PUSH1 0x40 DUP3 ADD SWAP1 POP SWAP2 SWAP1 POP JUMP JUMPDEST PUSH0 PUSH1 0x20 DUP3 ADD SWAP1 POP DUP2 DUP2 SUB PUSH0 DUP4 ADD MSTORE PUSH2 0x352 DUP2 PUSH2 0x319 JUMP JUMPDEST SWAP1 POP SWAP2 SWAP1 POP JUMP JUMPDEST PUSH32 0x4E487B7100000000000000000000000000000000000000000000000000000000 PUSH0 MSTORE PUSH1 0x11 PUSH1 0x4 MSTORE PUSH1 0x24 PUSH0 REVERT JUMPDEST PUSH0 PUSH2 0x390 DUP3 PUSH2 0x171 JUMP JUMPDEST SWAP2 POP PUSH2 0x39B DUP4 PUSH2 0x171 JUMP JUMPDEST SWAP3 POP DUP3 DUP3 ADD SWAP1 POP DUP1 DUP3 GT ISZERO PUSH2 0x3B3 JUMPI PUSH2 0x3B2 PUSH2 0x359 JUMP JUMPDEST JUMPDEST SWAP3 SWAP2 POP POP JUMP JUMPDEST PUSH0 PUSH1 0x20 DUP3 ADD SWAP1 POP PUSH2 0x3CC PUSH0 DUP4 ADD DUP5 PUSH2 0x1CF JUMP JUMPDEST SWAP3 SWAP2 POP POP JUMP INVALID LOG2 PUSH5 0x6970667358 0x22 SLT KECCAK256 SWAP13 0xEC LOG0 0xE4 MSIZE PUSH0 GT 0xB7 0xB4 0xBA 0xD7 0xCB EXTCODEHASH 0x4E DUP6 CALL 0xD7 MLOAD JUMP 0xC4 SWAP15 EXTCODECOPY STOP 0xE7 DUP9 PUSH8 0x8E9D3E481CFE6473 PUSH16 0x6C634300081A00330000000000000000 "
		},
		"gasEstimates": {
			"creation": {
				"codeDepositCost": "206400",
				"executionCost": "infinite",
				"totalCost": "infinite"
			},
			"external": {
				"acumularPuntos(uint256)": "infinite",
				"consultarEstadoDeRecompensa()": "infinite"
			}
		},
		"methodIdentifiers": {
			"acumularPuntos(uint256)": "3ee3cfd9",
			"consultarEstadoDeRecompensa()": "933eac0b"
		}
	},
	"abi": [
		{
			"inputs": [
				{
					"internalType": "uint256",
					"name": "_UmbralParaRecompensa",
					"type": "uint256"
				}
			],
			"stateMutability": "nonpayable",
			"type": "constructor"
		},
		{
			"anonymous": false,
			"inputs": [
				{
					"indexed": false,
					"internalType": "uint256",
					"name": "puntosUsuario",
					"type": "uint256"
				}
			],
			"name": "puntosAcumulados",
			"type": "event"
		},
		{
			"inputs": [
				{
					"internalType": "uint256",
					"name": "_sumarPuntos",
					"type": "uint256"
				}
			],
			"name": "acumularPuntos",
			"outputs": [],
			"stateMutability": "nonpayable",
			"type": "function"
		},
		{
			"inputs": [],
			"name": "consultarEstadoDeRecompensa",
			"outputs": [
				{
					"internalType": "uint256",
					"name": "",
					"type": "uint256"
				},
				{
					"internalType": "uint256",
					"name": "",
					"type": "uint256"
				},
				{
					"internalType": "bool",
					"name": "",
					"type": "bool"
				}
			],
			"stateMutability": "view",
			"type": "function"
		}
	]
}