{
	"data": {
		"bytecode": {
			"linkReferences": {},
			"object": "6080604052348015600e575f80fd5b5060405161064d38038061064d8339818101604052810190602e9190606b565b805f81905550506091565b5f80fd5b5f819050919050565b604d81603d565b81146056575f80fd5b50565b5f815190506065816046565b92915050565b5f60208284031215607d57607c6039565b5b5f6088848285016059565b91505092915050565b6105af8061009e5f395ff3fe608060405234801561000f575f80fd5b5060043610610055575f3560e01c80635044a935146100595780637530afb5146100775780637e189cd7146100a7578063877213ea146100c5578063d2388097146100e3575b5f80fd5b6100616100ff565b60405161006e9190610280565b60405180910390f35b610091600480360381019061008c91906102c7565b610105565b60405161009e9190610280565b60405180910390f35b6100af61011e565b6040516100bc9190610397565b60405180910390f35b6100cd610169565b6040516100da9190610280565b60405180910390f35b6100fd60048036038101906100f891906102c7565b61016e565b005b60015481565b60028160038110610114575f80fd5b015f915090505481565b610126610246565b600260038060200260405190810160405280929190826003801561015f576020028201915b81548152602001906001019080831161014b575b5050505050905090565b5f5481565b5f81116101b0576040517f08c379a00000000000000000000000000000000000000000000000000000000081526004016101a790610430565b60405180910390fd5b806001819055505f60645f546001546101c9919061047b565b6101d391906104e9565b6001546101e09190610519565b90505f6003826101f091906104e9565b90508060025f600381106102075761020661054c565b5b01819055508060026001600381106102225761022161054c565b5b0181905550806002806003811061023c5761023b61054c565b5b0181905550505050565b6040518060600160405280600390602082028036833780820191505090505090565b5f819050919050565b61027a81610268565b82525050565b5f6020820190506102935f830184610271565b92915050565b5f80fd5b6102a681610268565b81146102b0575f80fd5b50565b5f813590506102c18161029d565b92915050565b5f602082840312156102dc576102db610299565b5b5f6102e9848285016102b3565b91505092915050565b5f60039050919050565b5f81905092915050565b5f819050919050565b61031881610268565b82525050565b5f610329838361030f565b60208301905092915050565b5f602082019050919050565b61034a816102f2565b61035481846102fc565b925061035f82610306565b805f5b8381101561038f578151610376878261031e565b965061038183610335565b925050600181019050610362565b505050505050565b5f6060820190506103aa5f830184610341565b92915050565b5f82825260208201905092915050565b7f456c206d6f6e746f2064656c207072657374616d6f20646562652073657220705f8201527f6f73697469766f00000000000000000000000000000000000000000000000000602082015250565b5f61041a6027836103b0565b9150610425826103c0565b604082019050919050565b5f6020820190508181035f8301526104478161040e565b9050919050565b7f4e487b71000000000000000000000000000000000000000000000000000000005f52601160045260245ffd5b5f61048582610268565b915061049083610268565b925082820261049e81610268565b915082820484148315176104b5576104b461044e565b5b5092915050565b7f4e487b71000000000000000000000000000000000000000000000000000000005f52601260045260245ffd5b5f6104f382610268565b91506104fe83610268565b92508261050e5761050d6104bc565b5b828204905092915050565b5f61052382610268565b915061052e83610268565b92508282019050808211156105465761054561044e565b5b92915050565b7f4e487b71000000000000000000000000000000000000000000000000000000005f52603260045260245ffdfea2646970667358221220daed3f0a8ad093b66afb5be8e936135ef8fcdefc631bcce032e9a5429788b7d664736f6c634300081a0033",
			"opcodes": "PUSH1 0x80 PUSH1 0x40 MSTORE CALLVALUE DUP1 ISZERO PUSH1 0xE JUMPI PUSH0 DUP1 REVERT JUMPDEST POP PUSH1 0x40 MLOAD PUSH2 0x64D CODESIZE SUB DUP1 PUSH2 0x64D DUP4 CODECOPY DUP2 DUP2 ADD PUSH1 0x40 MSTORE DUP2 ADD SWAP1 PUSH1 0x2E SWAP2 SWAP1 PUSH1 0x6B JUMP JUMPDEST DUP1 PUSH0 DUP2 SWAP1 SSTORE POP POP PUSH1 0x91 JUMP JUMPDEST PUSH0 DUP1 REVERT JUMPDEST PUSH0 DUP2 SWAP1 POP SWAP2 SWAP1 POP JUMP JUMPDEST PUSH1 0x4D DUP2 PUSH1 0x3D JUMP JUMPDEST DUP2 EQ PUSH1 0x56 JUMPI PUSH0 DUP1 REVERT JUMPDEST POP JUMP JUMPDEST PUSH0 DUP2 MLOAD SWAP1 POP PUSH1 0x65 DUP2 PUSH1 0x46 JUMP JUMPDEST SWAP3 SWAP2 POP POP JUMP JUMPDEST PUSH0 PUSH1 0x20 DUP3 DUP5 SUB SLT ISZERO PUSH1 0x7D JUMPI PUSH1 0x7C PUSH1 0x39 JUMP JUMPDEST JUMPDEST PUSH0 PUSH1 0x88 DUP5 DUP3 DUP6 ADD PUSH1 0x59 JUMP JUMPDEST SWAP2 POP POP SWAP3 SWAP2 POP POP JUMP JUMPDEST PUSH2 0x5AF DUP1 PUSH2 0x9E PUSH0 CODECOPY PUSH0 RETURN INVALID PUSH1 0x80 PUSH1 0x40 MSTORE CALLVALUE DUP1 ISZERO PUSH2 0xF JUMPI PUSH0 DUP1 REVERT JUMPDEST POP PUSH1 0x4 CALLDATASIZE LT PUSH2 0x55 JUMPI PUSH0 CALLDATALOAD PUSH1 0xE0 SHR DUP1 PUSH4 0x5044A935 EQ PUSH2 0x59 JUMPI DUP1 PUSH4 0x7530AFB5 EQ PUSH2 0x77 JUMPI DUP1 PUSH4 0x7E189CD7 EQ PUSH2 0xA7 JUMPI DUP1 PUSH4 0x877213EA EQ PUSH2 0xC5 JUMPI DUP1 PUSH4 0xD2388097 EQ PUSH2 0xE3 JUMPI JUMPDEST PUSH0 DUP1 REVERT JUMPDEST PUSH2 0x61 PUSH2 0xFF JUMP JUMPDEST PUSH1 0x40 MLOAD PUSH2 0x6E SWAP2 SWAP1 PUSH2 0x280 JUMP JUMPDEST PUSH1 0x40 MLOAD DUP1 SWAP2 SUB SWAP1 RETURN JUMPDEST PUSH2 0x91 PUSH1 0x4 DUP1 CALLDATASIZE SUB DUP2 ADD SWAP1 PUSH2 0x8C SWAP2 SWAP1 PUSH2 0x2C7 JUMP JUMPDEST PUSH2 0x105 JUMP JUMPDEST PUSH1 0x40 MLOAD PUSH2 0x9E SWAP2 SWAP1 PUSH2 0x280 JUMP JUMPDEST PUSH1 0x40 MLOAD DUP1 SWAP2 SUB SWAP1 RETURN JUMPDEST PUSH2 0xAF PUSH2 0x11E JUMP JUMPDEST PUSH1 0x40 MLOAD PUSH2 0xBC SWAP2 SWAP1 PUSH2 0x397 JUMP JUMPDEST PUSH1 0x40 MLOAD DUP1 SWAP2 SUB SWAP1 RETURN JUMPDEST PUSH2 0xCD PUSH2 0x169 JUMP JUMPDEST PUSH1 0x40 MLOAD PUSH2 0xDA SWAP2 SWAP1 PUSH2 0x280 JUMP JUMPDEST PUSH1 0x40 MLOAD DUP1 SWAP2 SUB SWAP1 RETURN JUMPDEST PUSH2 0xFD PUSH1 0x4 DUP1 CALLDATASIZE SUB DUP2 ADD SWAP1 PUSH2 0xF8 SWAP2 SWAP1 PUSH2 0x2C7 JUMP JUMPDEST PUSH2 0x16E JUMP JUMPDEST STOP JUMPDEST PUSH1 0x1 SLOAD DUP2 JUMP JUMPDEST PUSH1 0x2 DUP2 PUSH1 0x3 DUP2 LT PUSH2 0x114 JUMPI PUSH0 DUP1 REVERT JUMPDEST ADD PUSH0 SWAP2 POP SWAP1 POP SLOAD DUP2 JUMP JUMPDEST PUSH2 0x126 PUSH2 0x246 JUMP JUMPDEST PUSH1 0x2 PUSH1 0x3 DUP1 PUSH1 0x20 MUL PUSH1 0x40 MLOAD SWAP1 DUP2 ADD PUSH1 0x40 MSTORE DUP1 SWAP3 SWAP2 SWAP1 DUP3 PUSH1 0x3 DUP1 ISZERO PUSH2 0x15F JUMPI PUSH1 0x20 MUL DUP3 ADD SWAP2 JUMPDEST DUP2 SLOAD DUP2 MSTORE PUSH1 0x20 ADD SWAP1 PUSH1 0x1 ADD SWAP1 DUP1 DUP4 GT PUSH2 0x14B JUMPI JUMPDEST POP POP POP POP POP SWAP1 POP SWAP1 JUMP JUMPDEST PUSH0 SLOAD DUP2 JUMP JUMPDEST PUSH0 DUP2 GT PUSH2 0x1B0 JUMPI PUSH1 0x40 MLOAD PUSH32 0x8C379A000000000000000000000000000000000000000000000000000000000 DUP2 MSTORE PUSH1 0x4 ADD PUSH2 0x1A7 SWAP1 PUSH2 0x430 JUMP JUMPDEST PUSH1 0x40 MLOAD DUP1 SWAP2 SUB SWAP1 REVERT JUMPDEST DUP1 PUSH1 0x1 DUP2 SWAP1 SSTORE POP PUSH0 PUSH1 0x64 PUSH0 SLOAD PUSH1 0x1 SLOAD PUSH2 0x1C9 SWAP2 SWAP1 PUSH2 0x47B JUMP JUMPDEST PUSH2 0x1D3 SWAP2 SWAP1 PUSH2 0x4E9 JUMP JUMPDEST PUSH1 0x1 SLOAD PUSH2 0x1E0 SWAP2 SWAP1 PUSH2 0x519 JUMP JUMPDEST SWAP1 POP PUSH0 PUSH1 0x3 DUP3 PUSH2 0x1F0 SWAP2 SWAP1 PUSH2 0x4E9 JUMP JUMPDEST SWAP1 POP DUP1 PUSH1 0x2 PUSH0 PUSH1 0x3 DUP2 LT PUSH2 0x207 JUMPI PUSH2 0x206 PUSH2 0x54C JUMP JUMPDEST JUMPDEST ADD DUP2 SWAP1 SSTORE POP DUP1 PUSH1 0x2 PUSH1 0x1 PUSH1 0x3 DUP2 LT PUSH2 0x222 JUMPI PUSH2 0x221 PUSH2 0x54C JUMP JUMPDEST JUMPDEST ADD DUP2 SWAP1 SSTORE POP DUP1 PUSH1 0x2 DUP1 PUSH1 0x3 DUP2 LT PUSH2 0x23C JUMPI PUSH2 0x23B PUSH2 0x54C JUMP JUMPDEST JUMPDEST ADD DUP2 SWAP1 SSTORE POP POP POP POP JUMP JUMPDEST PUSH1 0x40 MLOAD DUP1 PUSH1 0x60 ADD PUSH1 0x40 MSTORE DUP1 PUSH1 0x3 SWAP1 PUSH1 0x20 DUP3 MUL DUP1 CALLDATASIZE DUP4 CALLDATACOPY DUP1 DUP3 ADD SWAP2 POP POP SWAP1 POP POP SWAP1 JUMP JUMPDEST PUSH0 DUP2 SWAP1 POP SWAP2 SWAP1 POP JUMP JUMPDEST PUSH2 0x27A DUP2 PUSH2 0x268 JUMP JUMPDEST DUP3 MSTORE POP POP JUMP JUMPDEST PUSH0 PUSH1 0x20 DUP3 ADD SWAP1 POP PUSH2 0x293 PUSH0 DUP4 ADD DUP5 PUSH2 0x271 JUMP JUMPDEST SWAP3 SWAP2 POP POP JUMP JUMPDEST PUSH0 DUP1 REVERT JUMPDEST PUSH2 0x2A6 DUP2 PUSH2 0x268 JUMP JUMPDEST DUP2 EQ PUSH2 0x2B0 JUMPI PUSH0 DUP1 REVERT JUMPDEST POP JUMP JUMPDEST PUSH0 DUP2 CALLDATALOAD SWAP1 POP PUSH2 0x2C1 DUP2 PUSH2 0x29D JUMP JUMPDEST SWAP3 SWAP2 POP POP JUMP JUMPDEST PUSH0 PUSH1 0x20 DUP3 DUP5 SUB SLT ISZERO PUSH2 0x2DC JUMPI PUSH2 0x2DB PUSH2 0x299 JUMP JUMPDEST JUMPDEST PUSH0 PUSH2 0x2E9 DUP5 DUP3 DUP6 ADD PUSH2 0x2B3 JUMP JUMPDEST SWAP2 POP POP SWAP3 SWAP2 POP POP JUMP JUMPDEST PUSH0 PUSH1 0x3 SWAP1 POP SWAP2 SWAP1 POP JUMP JUMPDEST PUSH0 DUP2 SWAP1 POP SWAP3 SWAP2 POP POP JUMP JUMPDEST PUSH0 DUP2 SWAP1 POP SWAP2 SWAP1 POP JUMP JUMPDEST PUSH2 0x318 DUP2 PUSH2 0x268 JUMP JUMPDEST DUP3 MSTORE POP POP JUMP JUMPDEST PUSH0 PUSH2 0x329 DUP4 DUP4 PUSH2 0x30F JUMP JUMPDEST PUSH1 0x20 DUP4 ADD SWAP1 POP SWAP3 SWAP2 POP POP JUMP JUMPDEST PUSH0 PUSH1 0x20 DUP3 ADD SWAP1 POP SWAP2 SWAP1 POP JUMP JUMPDEST PUSH2 0x34A DUP2 PUSH2 0x2F2 JUMP JUMPDEST PUSH2 0x354 DUP2 DUP5 PUSH2 0x2FC JUMP JUMPDEST SWAP3 POP PUSH2 0x35F DUP3 PUSH2 0x306 JUMP JUMPDEST DUP1 PUSH0 JUMPDEST DUP4 DUP2 LT ISZERO PUSH2 0x38F JUMPI DUP2 MLOAD PUSH2 0x376 DUP8 DUP3 PUSH2 0x31E JUMP JUMPDEST SWAP7 POP PUSH2 0x381 DUP4 PUSH2 0x335 JUMP JUMPDEST SWAP3 POP POP PUSH1 0x1 DUP2 ADD SWAP1 POP PUSH2 0x362 JUMP JUMPDEST POP POP POP POP POP POP JUMP JUMPDEST PUSH0 PUSH1 0x60 DUP3 ADD SWAP1 POP PUSH2 0x3AA PUSH0 DUP4 ADD DUP5 PUSH2 0x341 JUMP JUMPDEST SWAP3 SWAP2 POP POP JUMP JUMPDEST PUSH0 DUP3 DUP3 MSTORE PUSH1 0x20 DUP3 ADD SWAP1 POP SWAP3 SWAP2 POP POP JUMP JUMPDEST PUSH32 0x456C206D6F6E746F2064656C207072657374616D6F2064656265207365722070 PUSH0 DUP3 ADD MSTORE PUSH32 0x6F73697469766F00000000000000000000000000000000000000000000000000 PUSH1 0x20 DUP3 ADD MSTORE POP JUMP JUMPDEST PUSH0 PUSH2 0x41A PUSH1 0x27 DUP4 PUSH2 0x3B0 JUMP JUMPDEST SWAP2 POP PUSH2 0x425 DUP3 PUSH2 0x3C0 JUMP JUMPDEST PUSH1 0x40 DUP3 ADD SWAP1 POP SWAP2 SWAP1 POP JUMP JUMPDEST PUSH0 PUSH1 0x20 DUP3 ADD SWAP1 POP DUP2 DUP2 SUB PUSH0 DUP4 ADD MSTORE PUSH2 0x447 DUP2 PUSH2 0x40E JUMP JUMPDEST SWAP1 POP SWAP2 SWAP1 POP JUMP JUMPDEST PUSH32 0x4E487B7100000000000000000000000000000000000000000000000000000000 PUSH0 MSTORE PUSH1 0x11 PUSH1 0x4 MSTORE PUSH1 0x24 PUSH0 REVERT JUMPDEST PUSH0 PUSH2 0x485 DUP3 PUSH2 0x268 JUMP JUMPDEST SWAP2 POP PUSH2 0x490 DUP4 PUSH2 0x268 JUMP JUMPDEST SWAP3 POP DUP3 DUP3 MUL PUSH2 0x49E DUP2 PUSH2 0x268 JUMP JUMPDEST SWAP2 POP DUP3 DUP3 DIV DUP5 EQ DUP4 ISZERO OR PUSH2 0x4B5 JUMPI PUSH2 0x4B4 PUSH2 0x44E JUMP JUMPDEST JUMPDEST POP SWAP3 SWAP2 POP POP JUMP JUMPDEST PUSH32 0x4E487B7100000000000000000000000000000000000000000000000000000000 PUSH0 MSTORE PUSH1 0x12 PUSH1 0x4 MSTORE PUSH1 0x24 PUSH0 REVERT JUMPDEST PUSH0 PUSH2 0x4F3 DUP3 PUSH2 0x268 JUMP JUMPDEST SWAP2 POP PUSH2 0x4FE DUP4 PUSH2 0x268 JUMP JUMPDEST SWAP3 POP DUP3 PUSH2 0x50E JUMPI PUSH2 0x50D PUSH2 0x4BC JUMP JUMPDEST JUMPDEST DUP3 DUP3 DIV SWAP1 POP SWAP3 SWAP2 POP POP JUMP JUMPDEST PUSH0 PUSH2 0x523 DUP3 PUSH2 0x268 JUMP JUMPDEST SWAP2 POP PUSH2 0x52E DUP4 PUSH2 0x268 JUMP JUMPDEST SWAP3 POP DUP3 DUP3 ADD SWAP1 POP DUP1 DUP3 GT ISZERO PUSH2 0x546 JUMPI PUSH2 0x545 PUSH2 0x44E JUMP JUMPDEST JUMPDEST SWAP3 SWAP2 POP POP JUMP JUMPDEST PUSH32 0x4E487B7100000000000000000000000000000000000000000000000000000000 PUSH0 MSTORE PUSH1 0x32 PUSH1 0x4 MSTORE PUSH1 0x24 PUSH0 REVERT INVALID LOG2 PUSH5 0x6970667358 0x22 SLT KECCAK256 0xDA 0xED EXTCODEHASH EXP DUP11 0xD0 SWAP4 0xB6 PUSH11 0xFB5BE8E936135EF8FCDEFC PUSH4 0x1BCCE032 0xE9 0xA5 TIMESTAMP SWAP8 DUP9 0xB7 0xD6 PUSH5 0x736F6C6343 STOP ADDMOD BYTE STOP CALLER "
		},
		"gasEstimates": {
			"creation": {
				"codeDepositCost": "291000",
				"executionCost": "infinite",
				"totalCost": "infinite"
			},
			"external": {
				"cuotas(uint256)": "infinite",
				"establecerPrestamoYCalcularCuotas(uint256)": "infinite",
				"montoPrestamo()": "2403",
				"obtenerCuotas()": "infinite",
				"tasaInteres()": "2468"
			}
		},
		"methodIdentifiers": {
			"cuotas(uint256)": "7530afb5",
			"establecerPrestamoYCalcularCuotas(uint256)": "d2388097",
			"montoPrestamo()": "5044a935",
			"obtenerCuotas()": "7e189cd7",
			"tasaInteres()": "877213ea"
		}
	},
	"abi": [
		{
			"inputs": [
				{
					"internalType": "uint256",
					"name": "_tasaInteres",
					"type": "uint256"
				}
			],
			"stateMutability": "nonpayable",
			"type": "constructor"
		},
		{
			"inputs": [
				{
					"internalType": "uint256",
					"name": "",
					"type": "uint256"
				}
			],
			"name": "cuotas",
			"outputs": [
				{
					"internalType": "uint256",
					"name": "",
					"type": "uint256"
				}
			],
			"stateMutability": "view",
			"type": "function"
		},
		{
			"inputs": [
				{
					"internalType": "uint256",
					"name": "_montoPrestamo",
					"type": "uint256"
				}
			],
			"name": "establecerPrestamoYCalcularCuotas",
			"outputs": [],
			"stateMutability": "nonpayable",
			"type": "function"
		},
		{
			"inputs": [],
			"name": "montoPrestamo",
			"outputs": [
				{
					"internalType": "uint256",
					"name": "",
					"type": "uint256"
				}
			],
			"stateMutability": "view",
			"type": "function"
		},
		{
			"inputs": [],
			"name": "obtenerCuotas",
			"outputs": [
				{
					"internalType": "uint256[3]",
					"name": "",
					"type": "uint256[3]"
				}
			],
			"stateMutability": "view",
			"type": "function"
		},
		{
			"inputs": [],
			"name": "tasaInteres",
			"outputs": [
				{
					"internalType": "uint256",
					"name": "",
					"type": "uint256"
				}
			],
			"stateMutability": "view",
			"type": "function"
		}
	]
}